:100000000C942A000C943C000C943C000C943C0092
:100010000C943C000C943C000C943C000C943C0070
:100020000C943C000C943C000C943C000C943C0060
:100030000C943C000C943C000C943C000C943C0050
:100040000C943C000C943C000C943C000C943C0040
:100050000C943C0011241FBECFE5D4E0DEBFCDBF21
:1000600020E0A0E6B0E001C01D92A136B207E1F7A2
:100070000E943E000C945B000C9400008FEF87BB45
:100080001ABA81E080936000C89B0EC0C899FECF69
:1000900080916000803821F481E08093600007C087
:1000A000880F8093600003C089B389B389B38091BE
:0A00B000600088BBE9CFF894FFCF91
:00000001FF
